{
  "_format": "hh-sol-artifact-1",
  "contractName": "CrabUSDC",
  "sourceName": "contracts/CrabUSDC.sol",
  "abi": [
    {
      "inputs": [
        {
          "internalType": "address",
          "name": "_usdc",
          "type": "address"
        }
      ],
      "stateMutability": "nonpayable",
      "type": "constructor"
    },
    {
      "inputs": [
        {
          "internalType": "address",
          "name": "token",
          "type": "address"
        }
      ],
      "name": "SafeERC20FailedOperation",
      "type": "error"
    },
    {
      "anonymous": false,
      "inputs": [
        {
          "indexed": true,
          "internalType": "uint256",
          "name": "giftBoxId",
          "type": "uint256"
        },
        {
          "indexed": false,
          "internalType": "string",
          "name": "name",
          "type": "string"
        },
        {
          "indexed": false,
          "internalType": "uint256",
          "name": "price",
          "type": "uint256"
        },
        {
          "indexed": false,
          "internalType": "uint256",
          "name": "stock",
          "type": "uint256"
        }
      ],
      "name": "GiftBoxAdded",
      "type": "event"
    },
    {
      "anonymous": false,
      "inputs": [
        {
          "indexed": true,
          "internalType": "uint256",
          "name": "orderId",
          "type": "uint256"
        },
        {
          "indexed": false,
          "internalType": "string",
          "name": "trackingNumber",
          "type": "string"
        }
      ],
      "name": "OrderFulfilled",
      "type": "event"
    },
    {
      "anonymous": false,
      "inputs": [
        {
          "indexed": true,
          "internalType": "uint256",
          "name": "orderId",
          "type": "uint256"
        },
        {
          "indexed": true,
          "internalType": "address",
          "name": "buyer",
          "type": "address"
        },
        {
          "indexed": false,
          "internalType": "uint256",
          "name": "giftBoxId",
          "type": "uint256"
        },
        {
          "indexed": false,
          "internalType": "uint256",
          "name": "quantity",
          "type": "uint256"
        },
        {
          "indexed": false,
          "internalType": "uint256",
          "name": "totalAmount",
          "type": "uint256"
        },
        {
          "indexed": false,
          "internalType": "string",
          "name": "shippingInfo",
          "type": "string"
        },
        {
          "indexed": false,
          "internalType": "uint256",
          "name": "timestamp",
          "type": "uint256"
        }
      ],
      "name": "OrderPlaced",
      "type": "event"
    },
    {
      "anonymous": false,
      "inputs": [
        {
          "indexed": true,
          "internalType": "uint256",
          "name": "orderId",
          "type": "uint256"
        },
        {
          "indexed": false,
          "internalType": "uint256",
          "name": "amount",
          "type": "uint256"
        }
      ],
      "name": "RefundApproved",
      "type": "event"
    },
    {
      "anonymous": false,
      "inputs": [
        {
          "indexed": true,
          "internalType": "uint256",
          "name": "orderId",
          "type": "uint256"
        }
      ],
      "name": "RefundRejected",
      "type": "event"
    },
    {
      "anonymous": false,
      "inputs": [
        {
          "indexed": true,
          "internalType": "uint256",
          "name": "orderId",
          "type": "uint256"
        }
      ],
      "name": "RefundRequested",
      "type": "event"
    },
    {
      "anonymous": false,
      "inputs": [
        {
          "indexed": true,
          "internalType": "address",
          "name": "to",
          "type": "address"
        },
        {
          "indexed": false,
          "internalType": "uint256",
          "name": "amount",
          "type": "uint256"
        }
      ],
      "name": "Withdraw",
      "type": "event"
    },
    {
      "inputs": [
        {
          "internalType": "string",
          "name": "name",
          "type": "string"
        },
        {
          "internalType": "string",
          "name": "description",
          "type": "string"
        },
        {
          "internalType": "uint256",
          "name": "price",
          "type": "uint256"
        },
        {
          "internalType": "uint256",
          "name": "stock",
          "type": "uint256"
        },
        {
          "internalType": "bool",
          "name": "active",
          "type": "bool"
        }
      ],
      "name": "addOrUpdateGiftBox",
      "outputs": [],
      "stateMutability": "nonpayable",
      "type": "function"
    },
    {
      "inputs": [
        {
          "internalType": "uint256",
          "name": "orderId",
          "type": "uint256"
        },
        {
          "internalType": "uint256",
          "name": "amount",
          "type": "uint256"
        }
      ],
      "name": "approveRefund",
      "outputs": [],
      "stateMutability": "nonpayable",
      "type": "function"
    },
    {
      "inputs": [
        {
          "internalType": "uint256",
          "name": "giftBoxId",
          "type": "uint256"
        },
        {
          "internalType": "uint256",
          "name": "quantity",
          "type": "uint256"
        },
        {
          "internalType": "string",
          "name": "shippingInfo",
          "type": "string"
        }
      ],
      "name": "buyGiftBox",
      "outputs": [],
      "stateMutability": "nonpayable",
      "type": "function"
    },
    {
      "inputs": [
        {
          "internalType": "address",
          "name": "",
          "type": "address"
        },
        {
          "internalType": "uint256",
          "name": "",
          "type": "uint256"
        }
      ],
      "name": "buyerOrders",
      "outputs": [
        {
          "internalType": "uint256",
          "name": "",
          "type": "uint256"
        }
      ],
      "stateMutability": "view",
      "type": "function"
    },
    {
      "inputs": [
        {
          "internalType": "uint256",
          "name": "orderId",
          "type": "uint256"
        },
        {
          "internalType": "string",
          "name": "trackingNumber",
          "type": "string"
        }
      ],
      "name": "fulfillOrder",
      "outputs": [],
      "stateMutability": "nonpayable",
      "type": "function"
    },
    {
      "inputs": [
        {
          "internalType": "uint256",
          "name": "",
          "type": "uint256"
        }
      ],
      "name": "giftBoxes",
      "outputs": [
        {
          "internalType": "uint256",
          "name": "id",
          "type": "uint256"
        },
        {
          "internalType": "string",
          "name": "name",
          "type": "string"
        },
        {
          "internalType": "string",
          "name": "description",
          "type": "string"
        },
        {
          "internalType": "uint256",
          "name": "price",
          "type": "uint256"
        },
        {
          "internalType": "uint256",
          "name": "stock",
          "type": "uint256"
        },
        {
          "internalType": "bool",
          "name": "active",
          "type": "bool"
        }
      ],
      "stateMutability": "view",
      "type": "function"
    },
    {
      "inputs": [],
      "name": "nextGiftBoxId",
      "outputs": [
        {
          "internalType": "uint256",
          "name": "",
          "type": "uint256"
        }
      ],
      "stateMutability": "view",
      "type": "function"
    },
    {
      "inputs": [],
      "name": "nextOrderId",
      "outputs": [
        {
          "internalType": "uint256",
          "name": "",
          "type": "uint256"
        }
      ],
      "stateMutability": "view",
      "type": "function"
    },
    {
      "inputs": [
        {
          "internalType": "uint256",
          "name": "",
          "type": "uint256"
        }
      ],
      "name": "orders",
      "outputs": [
        {
          "internalType": "uint256",
          "name": "orderId",
          "type": "uint256"
        },
        {
          "internalType": "address",
          "name": "buyer",
          "type": "address"
        },
        {
          "internalType": "uint256",
          "name": "giftBoxId",
          "type": "uint256"
        },
        {
          "internalType": "uint256",
          "name": "quantity",
          "type": "uint256"
        },
        {
          "internalType": "uint256",
          "name": "totalAmount",
          "type": "uint256"
        },
        {
          "internalType": "string",
          "name": "shippingInfo",
          "type": "string"
        },
        {
          "internalType": "uint256",
          "name": "timestamp",
          "type": "uint256"
        },
        {
          "internalType": "string",
          "name": "trackingNumber",
          "type": "string"
        },
        {
          "internalType": "enum CrabUSDC.OrderStatus",
          "name": "status",
          "type": "uint8"
        },
        {
          "internalType": "uint256",
          "name": "refundAmount",
          "type": "uint256"
        }
      ],
      "stateMutability": "view",
      "type": "function"
    },
    {
      "inputs": [],
      "name": "owner",
      "outputs": [
        {
          "internalType": "address",
          "name": "",
          "type": "address"
        }
      ],
      "stateMutability": "view",
      "type": "function"
    },
    {
      "inputs": [
        {
          "internalType": "uint256",
          "name": "orderId",
          "type": "uint256"
        }
      ],
      "name": "rejectRefund",
      "outputs": [],
      "stateMutability": "nonpayable",
      "type": "function"
    },
    {
      "inputs": [
        {
          "internalType": "uint256",
          "name": "orderId",
          "type": "uint256"
        }
      ],
      "name": "requestRefund",
      "outputs": [],
      "stateMutability": "nonpayable",
      "type": "function"
    },
    {
      "inputs": [
        {
          "internalType": "uint256",
          "name": "id",
          "type": "uint256"
        },
        {
          "internalType": "string",
          "name": "name",
          "type": "string"
        },
        {
          "internalType": "string",
          "name": "description",
          "type": "string"
        },
        {
          "internalType": "uint256",
          "name": "price",
          "type": "uint256"
        },
        {
          "internalType": "uint256",
          "name": "stock",
          "type": "uint256"
        },
        {
          "internalType": "bool",
          "name": "active",
          "type": "bool"
        }
      ],
      "name": "updateGiftBox",
      "outputs": [],
      "stateMutability": "nonpayable",
      "type": "function"
    },
    {
      "inputs": [],
      "name": "usdc",
      "outputs": [
        {
          "internalType": "contract IERC20",
          "name": "",
          "type": "address"
        }
      ],
      "stateMutability": "view",
      "type": "function"
    },
    {
      "inputs": [],
      "name": "withdraw",
      "outputs": [],
      "stateMutability": "nonpayable",
      "type": "function"
    }
  ],
  "bytecode": "0x60a060405260018055600160025534801561001957600080fd5b50604051612e07380380612e07833981810160405281019061003b9190610187565b600073ffffffffffffffffffffffffffffffffffffffff168173ffffffffffffffffffffffffffffffffffffffff16036100aa576040517f08c379a00000000000000000000000000000000000000000000000000000000081526004016100a190610211565b60405180910390fd5b336000806101000a81548173ffffffffffffffffffffffffffffffffffffffff021916908373ffffffffffffffffffffffffffffffffffffffff1602179055508073ffffffffffffffffffffffffffffffffffffffff1660808173ffffffffffffffffffffffffffffffffffffffff168152505050610231565b600080fd5b600073ffffffffffffffffffffffffffffffffffffffff82169050919050565b600061015482610129565b9050919050565b61016481610149565b811461016f57600080fd5b50565b6000815190506101818161015b565b92915050565b60006020828403121561019d5761019c610124565b5b60006101ab84828501610172565b91505092915050565b600082825260208201905092915050565b7f555344432063616e6e6f74206265207a65726f20616464726573730000000000600082015250565b60006101fb601b836101b4565b9150610206826101c5565b602082019050919050565b6000602082019050818103600083015261022a816101ee565b9050919050565b608051612b9f6102686000396000818161059e015281816106a201528181610759015281816108ba01526116c00152612b9f6000f3fe608060405234801561001057600080fd5b50600436106100f55760003560e01c80635f710bc6116100975780638da5cb5b116100665780638da5cb5b1461024f578063a4b2409e1461026d578063a85c38ef14610289578063bbf0764e146102c2576100f5565b80635f710bc6146101c45780636e552eb2146101e05780636f0203ba146101fe5780637d19e36d1461021a576100f5565b80633e413bee116100d35780633e413bee1461013e5780634500cb601461015c57806351e923d01461018c578063520a74bb146101a8576100f5565b806316dd3a8e146100fa5780632a58b330146101165780633ccfd60b14610134575b600080fd5b610114600480360381019061010f91906119c1565b6102de565b005b61011e610506565b60405161012b9190611a8c565b60405180910390f35b61013c61050c565b005b610146610757565b6040516101539190611b26565b60405180910390f35b61017660048036038101906101719190611b7f565b61077b565b6040516101839190611a8c565b60405180910390f35b6101a660048036038101906101a19190611bbf565b6107ac565b005b6101c260048036038101906101bd9190611c33565b610bbb565b005b6101de60048036038101906101d99190611c93565b610d59565b005b6101e8610eb8565b6040516101f59190611a8c565b60405180910390f35b61021860048036038101906102139190611d62565b610ebe565b005b610234600480360381019061022f9190611d62565b611039565b60405161024696959493929190611e2e565b60405180910390f35b610257611192565b6040516102649190611eac565b60405180910390f35b61028760048036038101906102829190611d62565b6111b6565b005b6102a3600480360381019061029e9190611d62565b611335565b6040516102b99a99989796959493929190611f3e565b60405180910390f35b6102dc60048036038101906102d79190611fe8565b6114c6565b005b60008054906101000a900473ffffffffffffffffffffffffffffffffffffffff1673ffffffffffffffffffffffffffffffffffffffff163373ffffffffffffffffffffffffffffffffffffffff161461036c576040517f08c379a000000000000000000000000000000000000000000000000000000000815260040161036390612074565b60405180910390fd5b600060016000815480929190610381906120c3565b9190505590506040518060c0016040528082815260200189898080601f016020809104026020016040519081016040528093929190818152602001838380828437600081840152601f19601f82011690508083019250505050505050815260200187878080601f016020809104026020016040519081016040528093929190818152602001838380828437600081840152601f19601f82011690508083019250505050505050815260200185815260200184815260200183151581525060036000838152602001908152602001600020600082015181600001556020820151816001019081610470919061233c565b506040820151816002019081610486919061233c565b50606082015181600301556080820151816004015560a08201518160050160006101000a81548160ff021916908315150217905550905050807f9ac83a700269a5100b58a7bfe9a8b39917295aeafeba19200a3118ec40951ced898987876040516104f4949392919061244a565b60405180910390a25050505050505050565b60025481565b60008054906101000a900473ffffffffffffffffffffffffffffffffffffffff1673ffffffffffffffffffffffffffffffffffffffff163373ffffffffffffffffffffffffffffffffffffffff161461059a576040517f08c379a000000000000000000000000000000000000000000000000000000000815260040161059190612074565b60405180910390fd5b60007f000000000000000000000000000000000000000000000000000000000000000073ffffffffffffffffffffffffffffffffffffffff166370a08231306040518263ffffffff1660e01b81526004016105f59190611eac565b602060405180830381865afa158015610612573d6000803e3d6000fd5b505050506040513d601f19601f82011682018060405250810190610636919061249f565b90506000811161067b576040517f08c379a000000000000000000000000000000000000000000000000000000000815260040161067290612518565b60405180910390fd5b6106e660008054906101000a900473ffffffffffffffffffffffffffffffffffffffff16827f000000000000000000000000000000000000000000000000000000000000000073ffffffffffffffffffffffffffffffffffffffff166117419092919063ffffffff16565b60008054906101000a900473ffffffffffffffffffffffffffffffffffffffff1673ffffffffffffffffffffffffffffffffffffffff167f884edad9ce6fa2440d8a54cc123490eb96d2768479d49ff9c7366125a94243648260405161074c9190611a8c565b60405180910390a250565b7f000000000000000000000000000000000000000000000000000000000000000081565b6005602052816000526040600020818154811061079757600080fd5b90600052602060002001600091509150505481565b60006003600086815260200190815260200160002090508060050160009054906101000a900460ff16610814576040517f08c379a000000000000000000000000000000000000000000000000000000000815260040161080b90612584565b60405180910390fd5b60008411610857576040517f08c379a000000000000000000000000000000000000000000000000000000000815260040161084e906125f0565b60405180910390fd5b838160040154101561089e576040517f08c379a00000000000000000000000000000000000000000000000000000000081526004016108959061265c565b60405180910390fd5b60008482600301546108b0919061267c565b90506108ff3330837f000000000000000000000000000000000000000000000000000000000000000073ffffffffffffffffffffffffffffffffffffffff166117c0909392919063ffffffff16565b8482600401600082825461091391906126be565b9250508190555060405180610140016040528060025481526020013373ffffffffffffffffffffffffffffffffffffffff16815260200187815260200186815260200182815260200185858080601f016020809104026020016040519081016040528093929190818152602001838380828437600081840152601f19601f820116905080830192505050505050508152602001428152602001604051806020016040528060008152508152602001600060048111156109d5576109d4611ec7565b5b815260200160008152506004600060025481526020019081526020016000206000820151816000015560208201518160010160006101000a81548173ffffffffffffffffffffffffffffffffffffffff021916908373ffffffffffffffffffffffffffffffffffffffff16021790555060408201518160020155606082015181600301556080820151816004015560a0820151816005019081610a78919061233c565b5060c0820151816006015560e0820151816007019081610a98919061233c565b506101008201518160080160006101000a81548160ff02191690836004811115610ac557610ac4611ec7565b5b02179055506101208201518160090155905050600560003373ffffffffffffffffffffffffffffffffffffffff1673ffffffffffffffffffffffffffffffffffffffff16815260200190815260200160002060025490806001815401808255809150506001900390600052602060002001600090919091909150553373ffffffffffffffffffffffffffffffffffffffff166002547f2b2ccc069a58aa21fbb13138c9ab1dc72d8e19bdcf9bbaf69c622da37ad25418888885898942604051610b93969594939291906126f2565b60405180910390a360026000815480929190610bae906120c3565b9190505550505050505050565b60008054906101000a900473ffffffffffffffffffffffffffffffffffffffff1673ffffffffffffffffffffffffffffffffffffffff163373ffffffffffffffffffffffffffffffffffffffff1614610c49576040517f08c379a0000000000000000000000000000000000000000000000000000000008152600401610c4090612074565b60405180910390fd5b600060046000858152602001908152602001600020905060006004811115610c7457610c73611ec7565b5b8160080160009054906101000a900460ff166004811115610c9857610c97611ec7565b5b14610cd8576040517f08c379a0000000000000000000000000000000000000000000000000000000008152600401610ccf9061279a565b60405180910390fd5b60018160080160006101000a81548160ff02191690836004811115610d0057610cff611ec7565b5b02179055508282826007019182610d189291906127c5565b50837f93161d8f4015340d1c4c0ef40f679db2250069c0ec3ee411d3801aa0a2bb60148484604051610d4b929190612895565b60405180910390a250505050565b60008054906101000a900473ffffffffffffffffffffffffffffffffffffffff1673ffffffffffffffffffffffffffffffffffffffff163373ffffffffffffffffffffffffffffffffffffffff1614610de7576040517f08c379a0000000000000000000000000000000000000000000000000000000008152600401610dde90612074565b60405180910390fd5b6000600360008a81526020019081526020016000206000015403610e40576040517f08c379a0000000000000000000000000000000000000000000000000000000008152600401610e3790612905565b60405180910390fd5b6000600360008a815260200190815260200160002090508787826001019182610e6a9291906127c5565b508585826002019182610e7e9291906127c5565b50838160030181905550828160040181905550818160050160006101000a81548160ff021916908315150217905550505050505050505050565b60015481565b60008054906101000a900473ffffffffffffffffffffffffffffffffffffffff1673ffffffffffffffffffffffffffffffffffffffff163373ffffffffffffffffffffffffffffffffffffffff1614610f4c576040517f08c379a0000000000000000000000000000000000000000000000000000000008152600401610f4390612074565b60405180910390fd5b600060046000838152602001908152602001600020905060026004811115610f7757610f76611ec7565b5b8160080160009054906101000a900460ff166004811115610f9b57610f9a611ec7565b5b14610fdb576040517f08c379a0000000000000000000000000000000000000000000000000000000008152600401610fd290612971565b60405180910390fd5b60048160080160006101000a81548160ff0219169083600481111561100357611002611ec7565b5b0217905550817fcd310aec5fd008c92a8b717bcc35f96c945fa4edece9d6a4a0d7fa0e1c509efb60405160405180910390a25050565b600360205280600052604060002060009150905080600001549080600101805461106290612169565b80601f016020809104026020016040519081016040528092919081815260200182805461108e90612169565b80156110db5780601f106110b0576101008083540402835291602001916110db565b820191906000526020600020905b8154815290600101906020018083116110be57829003601f168201915b5050505050908060020180546110f090612169565b80601f016020809104026020016040519081016040528092919081815260200182805461111c90612169565b80156111695780601f1061113e57610100808354040283529160200191611169565b820191906000526020600020905b81548152906001019060200180831161114c57829003601f168201915b5050505050908060030154908060040154908060050160009054906101000a900460ff16905086565b60008054906101000a900473ffffffffffffffffffffffffffffffffffffffff1681565b60006004600083815260200190815260200160002090503373ffffffffffffffffffffffffffffffffffffffff168160010160009054906101000a900473ffffffffffffffffffffffffffffffffffffffff1673ffffffffffffffffffffffffffffffffffffffff161461125f576040517f08c379a0000000000000000000000000000000000000000000000000000000008152600401611256906129dd565b60405180910390fd5b6000600481111561127357611272611ec7565b5b8160080160009054906101000a900460ff16600481111561129757611296611ec7565b5b146112d7576040517f08c379a00000000000000000000000000000000000000000000000000000000081526004016112ce90612a49565b60405180910390fd5b60028160080160006101000a81548160ff021916908360048111156112ff576112fe611ec7565b5b0217905550817f431b80eca5334464928f696b9231ecf0987e4f1a105f7f560f22514a2fb93dd760405160405180910390a25050565b60046020528060005260406000206000915090508060000154908060010160009054906101000a900473ffffffffffffffffffffffffffffffffffffffff169080600201549080600301549080600401549080600501805461139690612169565b80601f01602080910402602001604051908101604052809291908181526020018280546113c290612169565b801561140f5780601f106113e45761010080835404028352916020019161140f565b820191906000526020600020905b8154815290600101906020018083116113f257829003601f168201915b50505050509080600601549080600701805461142a90612169565b80601f016020809104026020016040519081016040528092919081815260200182805461145690612169565b80156114a35780601f10611478576101008083540402835291602001916114a3565b820191906000526020600020905b81548152906001019060200180831161148657829003601f168201915b5050505050908060080160009054906101000a900460ff1690806009015490508a565b60008054906101000a900473ffffffffffffffffffffffffffffffffffffffff1673ffffffffffffffffffffffffffffffffffffffff163373ffffffffffffffffffffffffffffffffffffffff1614611554576040517f08c379a000000000000000000000000000000000000000000000000000000000815260040161154b90612074565b60405180910390fd5b60006004600084815260200190815260200160002090506002600481111561157f5761157e611ec7565b5b8160080160009054906101000a900460ff1660048111156115a3576115a2611ec7565b5b146115e3576040517f08c379a00000000000000000000000000000000000000000000000000000000081526004016115da90612971565b60405180910390fd5b806004015482111561162a576040517f08c379a000000000000000000000000000000000000000000000000000000000815260040161162190612ab5565b60405180910390fd5b60038160080160006101000a81548160ff0219169083600481111561165257611651611ec7565b5b021790555081816009018190555080600301546003600083600201548152602001908152602001600020600401600082825461168e9190612ad5565b925050819055506117048160010160009054906101000a900473ffffffffffffffffffffffffffffffffffffffff16837f000000000000000000000000000000000000000000000000000000000000000073ffffffffffffffffffffffffffffffffffffffff166117419092919063ffffffff16565b827f0f0f4ee4fa3ca5587c1aa2568df6d3073b0e8f4d72fe9320aa7a27ebf2b065a8836040516117349190611a8c565b60405180910390a2505050565b6117bb838473ffffffffffffffffffffffffffffffffffffffff1663a9059cbb8585604051602401611774929190612b09565b604051602081830303815290604052915060e01b6020820180517bffffffffffffffffffffffffffffffffffffffffffffffffffffffff8381831617835250505050611842565b505050565b61183c848573ffffffffffffffffffffffffffffffffffffffff166323b872dd8686866040516024016117f593929190612b32565b604051602081830303815290604052915060e01b6020820180517bffffffffffffffffffffffffffffffffffffffffffffffffffffffff8381831617835250505050611842565b50505050565b600080602060008451602086016000885af180611865576040513d6000823e3d81fd5b3d92506000519150506000821461188057600181141561189c565b60008473ffffffffffffffffffffffffffffffffffffffff163b145b156118de57836040517f5274afe70000000000000000000000000000000000000000000000000000000081526004016118d59190611eac565b60405180910390fd5b50505050565b600080fd5b600080fd5b600080fd5b600080fd5b600080fd5b60008083601f840112611913576119126118ee565b5b8235905067ffffffffffffffff8111156119305761192f6118f3565b5b60208301915083600182028301111561194c5761194b6118f8565b5b9250929050565b6000819050919050565b61196681611953565b811461197157600080fd5b50565b6000813590506119838161195d565b92915050565b60008115159050919050565b61199e81611989565b81146119a957600080fd5b50565b6000813590506119bb81611995565b92915050565b600080600080600080600060a0888a0312156119e0576119df6118e4565b5b600088013567ffffffffffffffff8111156119fe576119fd6118e9565b5b611a0a8a828b016118fd565b9750975050602088013567ffffffffffffffff811115611a2d57611a2c6118e9565b5b611a398a828b016118fd565b95509550506040611a4c8a828b01611974565b9350506060611a5d8a828b01611974565b9250506080611a6e8a828b016119ac565b91505092959891949750929550565b611a8681611953565b82525050565b6000602082019050611aa16000830184611a7d565b92915050565b600073ffffffffffffffffffffffffffffffffffffffff82169050919050565b6000819050919050565b6000611aec611ae7611ae284611aa7565b611ac7565b611aa7565b9050919050565b6000611afe82611ad1565b9050919050565b6000611b1082611af3565b9050919050565b611b2081611b05565b82525050565b6000602082019050611b3b6000830184611b17565b92915050565b6000611b4c82611aa7565b9050919050565b611b5c81611b41565b8114611b6757600080fd5b50565b600081359050611b7981611b53565b92915050565b60008060408385031215611b9657611b956118e4565b5b6000611ba485828601611b6a565b9250506020611bb585828601611974565b9150509250929050565b60008060008060608587031215611bd957611bd86118e4565b5b6000611be787828801611974565b9450506020611bf887828801611974565b935050604085013567ffffffffffffffff811115611c1957611c186118e9565b5b611c25878288016118fd565b925092505092959194509250565b600080600060408486031215611c4c57611c4b6118e4565b5b6000611c5a86828701611974565b935050602084013567ffffffffffffffff811115611c7b57611c7a6118e9565b5b611c87868287016118fd565b92509250509250925092565b60008060008060008060008060c0898b031215611cb357611cb26118e4565b5b6000611cc18b828c01611974565b985050602089013567ffffffffffffffff811115611ce257611ce16118e9565b5b611cee8b828c016118fd565b9750975050604089013567ffffffffffffffff811115611d1157611d106118e9565b5b611d1d8b828c016118fd565b95509550506060611d308b828c01611974565b9350506080611d418b828c01611974565b92505060a0611d528b828c016119ac565b9150509295985092959890939650565b600060208284031215611d7857611d776118e4565b5b6000611d8684828501611974565b91505092915050565b600081519050919050565b600082825260208201905092915050565b60005b83811015611dc9578082015181840152602081019050611dae565b60008484015250505050565b6000601f19601f8301169050919050565b6000611df182611d8f565b611dfb8185611d9a565b9350611e0b818560208601611dab565b611e1481611dd5565b840191505092915050565b611e2881611989565b82525050565b600060c082019050611e436000830189611a7d565b8181036020830152611e558188611de6565b90508181036040830152611e698187611de6565b9050611e786060830186611a7d565b611e856080830185611a7d565b611e9260a0830184611e1f565b979650505050505050565b611ea681611b41565b82525050565b6000602082019050611ec16000830184611e9d565b92915050565b7f4e487b7100000000000000000000000000000000000000000000000000000000600052602160045260246000fd5b60058110611f0757611f06611ec7565b5b50565b6000819050611f1882611ef6565b919050565b6000611f2882611f0a565b9050919050565b611f3881611f1d565b82525050565b600061014082019050611f54600083018d611a7d565b611f61602083018c611e9d565b611f6e604083018b611a7d565b611f7b606083018a611a7d565b611f886080830189611a7d565b81810360a0830152611f9a8188611de6565b9050611fa960c0830187611a7d565b81810360e0830152611fbb8186611de6565b9050611fcb610100830185611f2f565b611fd9610120830184611a7d565b9b9a5050505050505050505050565b60008060408385031215611fff57611ffe6118e4565b5b600061200d85828601611974565b925050602061201e85828601611974565b9150509250929050565b7f4f6e6c79206f776e657200000000000000000000000000000000000000000000600082015250565b600061205e600a83611d9a565b915061206982612028565b602082019050919050565b6000602082019050818103600083015261208d81612051565b9050919050565b7f4e487b7100000000000000000000000000000000000000000000000000000000600052601160045260246000fd5b60006120ce82611953565b91507fffffffffffffffffffffffffffffffffffffffffffffffffffffffffffffffff8203612100576120ff612094565b5b600182019050919050565b7f4e487b7100000000000000000000000000000000000000000000000000000000600052604160045260246000fd5b7f4e487b7100000000000000000000000000000000000000000000000000000000600052602260045260246000fd5b6000600282049050600182168061218157607f821691505b6020821081036121945761219361213a565b5b50919050565b60008190508160005260206000209050919050565b60006020601f8301049050919050565b600082821b905092915050565b6000600883026121fc7fffffffffffffffffffffffffffffffffffffffffffffffffffffffffffffffff826121bf565b61220686836121bf565b95508019841693508086168417925050509392505050565b600061223961223461222f84611953565b611ac7565b611953565b9050919050565b6000819050919050565b6122538361221e565b61226761225f82612240565b8484546121cc565b825550505050565b600090565b61227c61226f565b61228781848461224a565b505050565b5b818110156122ab576122a0600082612274565b60018101905061228d565b5050565b601f8211156122f0576122c18161219a565b6122ca846121af565b810160208510156122d9578190505b6122ed6122e5856121af565b83018261228c565b50505b505050565b600082821c905092915050565b6000612313600019846008026122f5565b1980831691505092915050565b600061232c8383612302565b9150826002028217905092915050565b61234582611d8f565b67ffffffffffffffff81111561235e5761235d61210b565b5b6123688254612169565b6123738282856122af565b600060209050601f8311600181146123a65760008415612394578287015190505b61239e8582612320565b865550612406565b601f1984166123b48661219a565b60005b828110156123dc578489015182556001820191506020850194506020810190506123b7565b868310156123f957848901516123f5601f891682612302565b8355505b6001600288020188555050505b505050505050565b82818337600083830152505050565b60006124298385611d9a565b935061243683858461240e565b61243f83611dd5565b840190509392505050565b6000606082019050818103600083015261246581868861241d565b90506124746020830185611a7d565b6124816040830184611a7d565b95945050505050565b6000815190506124998161195d565b92915050565b6000602082840312156124b5576124b46118e4565b5b60006124c38482850161248a565b91505092915050565b7f4e6f2062616c616e636500000000000000000000000000000000000000000000600082015250565b6000612502600a83611d9a565b915061250d826124cc565b602082019050919050565b60006020820190508181036000830152612531816124f5565b9050919050565b7f47696674426f78206e6f7420666f722073616c65000000000000000000000000600082015250565b600061256e601483611d9a565b915061257982612538565b602082019050919050565b6000602082019050818103600083015261259d81612561565b9050919050565b7f5175616e74697479206d757374206265203e2030000000000000000000000000600082015250565b60006125da601483611d9a565b91506125e5826125a4565b602082019050919050565b60006020820190508181036000830152612609816125cd565b9050919050565b7f4e6f7420656e6f7567682073746f636b00000000000000000000000000000000600082015250565b6000612646601083611d9a565b915061265182612610565b602082019050919050565b6000602082019050818103600083015261267581612639565b9050919050565b600061268782611953565b915061269283611953565b92508282026126a081611953565b915082820484148315176126b7576126b6612094565b5b5092915050565b60006126c982611953565b91506126d483611953565b92508282039050818111156126ec576126eb612094565b5b92915050565b600060a0820190506127076000830189611a7d565b6127146020830188611a7d565b6127216040830187611a7d565b818103606083015261273481858761241d565b90506127436080830184611a7d565b979650505050505050565b7f43616e6e6f742066756c66696c6c000000000000000000000000000000000000600082015250565b6000612784600e83611d9a565b915061278f8261274e565b602082019050919050565b600060208201905081810360008301526127b381612777565b9050919050565b600082905092915050565b6127cf83836127ba565b67ffffffffffffffff8111156127e8576127e761210b565b5b6127f28254612169565b6127fd8282856122af565b6000601f83116001811461282c576000841561281a578287013590505b6128248582612320565b86555061288c565b601f19841661283a8661219a565b60005b828110156128625784890135825560018201915060208501945060208101905061283d565b8683101561287f578489013561287b601f891682612302565b8355505b6001600288020188555050505b50505050505050565b600060208201905081810360008301526128b081848661241d565b90509392505050565b7f47696674426f78206e6f74206578697374000000000000000000000000000000600082015250565b60006128ef601183611d9a565b91506128fa826128b9565b602082019050919050565b6000602082019050818103600083015261291e816128e2565b9050919050565b7f4e6f20726566756e642072657175657374656400000000000000000000000000600082015250565b600061295b601383611d9a565b915061296682612925565b602082019050919050565b6000602082019050818103600083015261298a8161294e565b9050919050565b7f4e6f7420796f7572206f72646572000000000000000000000000000000000000600082015250565b60006129c7600e83611d9a565b91506129d282612991565b602082019050919050565b600060208201905081810360008301526129f6816129ba565b9050919050565b7f43616e6e6f742072657175657374206e6f770000000000000000000000000000600082015250565b6000612a33601283611d9a565b9150612a3e826129fd565b602082019050919050565b60006020820190508181036000830152612a6281612a26565b9050919050565b7f526566756e6420746f6f206d7563680000000000000000000000000000000000600082015250565b6000612a9f600f83611d9a565b9150612aaa82612a69565b602082019050919050565b60006020820190508181036000830152612ace81612a92565b9050919050565b6000612ae082611953565b9150612aeb83611953565b9250828201905080821115612b0357612b02612094565b5b92915050565b6000604082019050612b1e6000830185611e9d565b612b2b6020830184611a7d565b9392505050565b6000606082019050612b476000830186611e9d565b612b546020830185611e9d565b612b616040830184611a7d565b94935050505056fea26469706673582212202a5f43705567e3b585187c9e446e1150b462e472e76a9d30a04f84a81e9a355d64736f6c634300081c0033",
  "linkReferences": {},
  "deployedLinkReferences": {}
}